:020000040800F2
:1000000068040020450100089D090008490900080E
:1000100099090008450600082B130008000000009D
:10002000000000000000000000000000E50B0008D8
:100030004906000800000000CD0A00086D0F000806
:100040005F0100085F0100085F0100085F01000810
:100050005F0100085F0100085D06000873060008E4
:100060007506000877060008790600085F01000899
:100070005F0100085F0100085F0100085F010008E0
:100080005F0100085F0100085F0100085F010008D0
:100090005F0100085F0100085F0100085F010008C0
:1000A0005F0100085F0100085F0100085F010008B0
:1000B000D10F00080D1000084D1000085F01000866
:1000C0005F0100085F0100085F0100085F01000890
:1000D0005F01000875110008A11100085F01000808
:1000E000670600085F0100085F0100085F01000863
:1000F0005F0100085F0100085F0100085F01000860
:100100005F0100085F0100088D1000085F01000812
:100110005F0100085F010008CD1000080D11000804
:100120005F0100085F0100085F0100085F0100082F
:10013000DFF80CD000F074FA00480047591A0008A4
:10014000680400200648804706480047FEE7FEE7AF
:10015000FEE7FEE7FEE7FEE7FEE7FEE7FEE7FEE777
:10016000710F000831010008421C10F8011B002922
:10017000FBD1801A70472DE9FE4F804681EA0300CB
:10018000C00F0C46009021F0004123F00045B8EB71
:100190000200A94105D24046214690461C460B4626
:1001A000024623F00040104304D14046214603B0EC
:1001B000BDE8F08F270DC7F30A00C3F30A51029080
:1001C000401A0190402866DAC3F3130040F4801B04
:1001D0000098924620B10023D2EB030A63EB0B0B8D
:1001E00001985946C0F14002504600F089F9064690
:1001F0000D4650465946019A00F0A1F910EB08004F
:100200006141002487EA115284EAE7731A433BD024
:10021000009A3AB3019A012A4FEA075210DC001BF8
:1002200061EB02014FF0004202EA0752CDE90042C1
:10023000001C41F5801132462B4600F09FF9B6E7CD
:10024000001B61EB0201001C41F5801300185B41AB
:100250002018A2F5001747EB030140EAD570B61944
:100260006D4111E06D084FEA360645EAC0754FEA68
:100270000752001B61EB0201001C41F58011490887
:100280004FEA30000019514132462B4603B0BDE819
:10029000F04F00F066B90098012240000023D0EB37
:1002A000020263EBE073009821464FEAE074B8EB7A
:1002B000000061EB0401E9E783F000435BE781F0B4
:1002C000004158E72DE9FE4F81EA030404F00044A1
:1002D00021F0004100944FF0000B23F0004350EA5E
:1002E000010402D052EA030404D10020014603B005
:1002F000BDE8F08FC3F30A54C1F30A552C44A4F2AD
:10030000F3340194A0FB0254C1F3130141F48011B2
:10031000C3F3130343F4801301FB024400FB034EB9
:10032000840A970A44EA815447EA8357A4FB076882
:1003300002958D0A05FB07854FEA932C04FB0C54AC
:100340002705029D4FEA065847EA1637B5EB080520
:100350006EEB070C870E920E47EA811742EA831272
:10036000A7FB0201B6EB0B0164EB00042B0D43EA83
:100370000C335E1844EB1C50DA465146E7FB020191
:10038000C5F313044FEA0B3343EA14534FEA043224
:10039000019C43EA0603A4F10C040294009CCDE9FD
:1003A00000B400F0EBF8A2E72DE9F04D81EA030478
:1003B00004F0004B21F0004514464FF0000A23F0F2
:1003C000004150EA050220D054EA01021DD0C5F3D5
:1003D0000A570246C5F31303C1F31300C1F30A56CB
:1003E00040F4801543F48013A7EB0608101BD64693
:1003F00008F2FD3873EB050002D308F1010801E0B3
:1004000092185B41B8F1000F03DA00200146BDE805
:10041000F08D00204FF48011064684460EE0171B35
:1004200073EB050705D3121B63EB050306434CEA88
:10043000010C49084FEA300092185B4150EA01076D
:10044000EDD152EA030012D082EA040083EA0501EA
:10045000084303D100224FF0004308E0101BAB41DA
:1004600002D20122002302E06FF0010253101AEBC6
:1004700006004CEB085110EB0A0041EB0B01BDE804
:10048000F04D00F06EB80EB5C10F80EAE070084480
:10049000CA07002140F233438DE80E000A460B469E
:1004A00000F06CF803B000BD0EB540F2334102918C
:1004B0000021CDE900110A460B4600F05FF803B0B9
:1004C00000BD70B5C1F30A5201F000450024C1F32C
:1004D000130140F2FF3341F480119A4201DA002007
:1004E00070BD40F233439A42A2F2334203DC5242DF
:1004F00000F015F800E090402C43F1D0404270BD70
:10050000202A04DB203A00FA02F1002070479140D3
:10051000C2F1200320FA03F3194390407047202AC8
:1005200004DB203A21FA02F00021704721FA02F39D
:10053000D040C2F120029140084319467047202A5A
:1005400006DBCB17203A41FA02F043EAE07306E0FB
:1005500041FA02F3D040C2F120029140084319460B
:10056000704710B5002B08DA401C41F100019218C9
:100570005B411A4301D120F0010010BD2DE9F04D7F
:1005800092469B4611B1B1FA81F202E0B0FA80F2D4
:1005900020329046FFF7B4FF04460F4640EA0A00B7
:1005A00041EA0B0153465A46084303D120463946D7
:1005B000BDE8F08D114653EA010015D0C8F14002A4
:1005C0005046FFF7ACFF05460E4650465946424698
:1005D000FFF796FF084301D0012000E0002005430B
:1005E00046EAE0762C4337430A984FEA4453A0EB9F
:1005F00008004FEAD4240A304FF0000244EA47547E
:100600004FEAD72502D500200146D1E70105101990
:100610006941DDE9084500196941BDE8F04DA0E7F1
:10062000064C074D06E0E06840F0010394E807003F
:1006300098471034AC42F6D3FFF77EFDBC1A000891
:10064000DC1A000800BFFEE7704701B502E0009821
:10065000401E009000980028F9D108BD10B5012077
:1006600000F00CF810BD10B54FF4005000F006F883
:1006700010BD70477047704770470000014908601F
:1006800070470000140401402DE9F04102460025A6
:100690000026002000230024002791F803C00CF05E
:1006A0000F0591F803C01CF0100F03D091F802C0A1
:1006B0004CEA050591F800C0BCF1000F31D0146878
:1006C00000202BE04FF0010C0CFA00F3B1F800C051
:1006D0000CEA03069E4220D183004FF00F0C0CFA67
:1006E00003F7BC4305FA03FC4CEA040491F803C089
:1006F000BCF1280F06D14FF0010C0CFA00FCC2F837
:1007000014C00AE091F803C0BCF1480F05D14FF0C6
:10071000010C0CFA00FCC2F810C0401C0828D1D310
:100720001460B1F800C0BCF1FF0F34DD5468002044
:100730002EE000F1080C4FF0010808FA0CF3B1F8B4
:1007400000C00CEA03069E4221D183004FF00F0C3B
:100750000CFA03F7BC4305FA03FC4CEA040491F8D5
:1007600003C0BCF1280F05D100F1080C08FA0CF801
:10077000C2F8148091F803C0BCF1480F07D100F112
:10078000080C4FF0010808FA0CF8C2F81080401C61
:100790000828CED35460BDE8F081000070B504464F
:1007A0000D46674800780C280CD2DFE800F0060CF4
:1007B00016202A343E5F678A92B5472C02D1012069
:1007C0005F490870B8E0502C03D102205C490870E2
:1007D00002E000205A490870AEE0522C03D10320F9
:1007E0005749087002E0002055490870A4E04D2CDC
:1007F00003D104205249087002E0002050490870DB
:100800009AE0432C03D105204D49087002E00020F6
:100810004B49087090E02C2C03D106204849087001
:1008200002E000204649087086E02C2C03D1072006
:100830004349087019E0302C01DB392C0EDD2E2CD9
:100840000CD000203E49087005F10B056876A876AB
:1008500028764FF0560005F80B0906E015F8231F1F
:100860002878401C05F823096C5465E02C2C03D132
:1008700008203349087000E0EC725DE02C2C03D1B5
:1008800009202F4908701BE0302C01DB392C0EDDCC
:100890002E2C0CD000202A49087005F10B05687633
:1008A000A87628764FF0560005F80B0908E015F8F1
:1008B000241F2878401C05F8240905F10C00445435
:1008C0003AE02C2C03D10A201D49087000E0AC75D9
:1008D00032E02C2C03D10B20194908701BE0302C7E
:1008E00001DB392C0EDD2E2C0CD0002014490870B1
:1008F00005F10B056876A87628764FF0560005F8C6
:100900000B0908E015F8251F2878401C05F8250973
:1009100005F1170044540FE02C2C0AD1002008499F
:100920000870002240F22551064800F064FC0120C6
:1009300070BD85F8224000BF00BF0020F8E700002E
:10094000240000200038014000BFFEE710B503225C
:100950004FF416510D4800F0C5FD02224FF4165118
:100960000B4800F0BFFD0123002225214FF4C06099
:1009700000F015F800F05CFE0020064981F8240024
:1009800081F8250081F8230010BD000000380140E7
:10099000004400403C00002000BFFEE77047F8B56F
:1009A00007460C4615461E46384600F047F88DF8B7
:1009B00000408DF801508DF8026001208DF8030091
:1009C000684600F001F8F8BD70B5002100230F2241
:1009D000C4780CB3164C246804F4E064C4F5E064F5
:1009E000210AC1F10403CA40447804FA03F184786F
:1009F0001440214309010F4C0678A155047804F0F6
:100A00001F050124AC4005786D114FF0E02606EB80
:100A10008505C5F8004109E0047804F01F050124AC
:100A2000AC40054D0678761145F8264070BD0000B3
:100A30000CED00E000E400E080E100E00249014349
:100A4000024A1160704700000000FA050CED00E05A
:100A50002DE9F04707460C464FF00008002597F8AF
:100A6000240097F8251008441E3000F0FF080FE01E
:100A70000A2098FBF0F100FB11803030C2B228460A
:100A8000691CCDB222540A2098FBF0F000F0FF0858
:100A9000B8F1000FECD1002060552046FFF764FB51
:100AA000C6B200250BE014F80590701B401E205CB8
:100AB0006055701B401E04F80090681CC5B206EB20
:100AC000D671B5EB610FEEDBBDE8F0877047000033
:100AD00029B1064AD2690243044BDA6104E0034AB1
:100AE000D2698243014BDA61704700000010024076
:100AF00029B1064A92690243044B9A6104E0034A11
:100B000092698243014B9A617047000000100240D5
:100B100030B500210022002400232D4D6D6805F022
:100B20000C0121B1042905D0082923D105E0294D64
:100B3000056022E0274D05601FE0254D6D6805F436
:100B40007012234D6D6805F48034022505EB924246
:100B50001CB9214D554305600BE01D4D6D6815F422
:100B6000003F03D01C4D5543056002E0194D55432D
:100B7000056002E0174D056000BF00BF144D6D68B1
:100B800005F0F0010909154D6B5C0568DD40456015
:100B90000F4D6D6805F4E061090A104D6B5C456806
:100BA000DD4085600A4D6D6805F46051C90A0B4D42
:100BB0006B5C4568DD40C560054D6D6805F44041DE
:100BC000890B074D6B5CC568B5FBF3F5056130BD5E
:100BD0000010024000127A0000093D0000000020D1
:100BE000100000207047000070B505461FA1234883
:100BF00000F0FAFC1DA1224800F0F6FC00240CE0F5
:100C000005F11700015D1D4800F0E0FC05F117003B
:100C1000015D1B4800F0DAFC641C95F82500A04239
:100C2000EEDC18A1154800F0DFFC16A1144800F016
:100C3000DBFC00240CE005F10C00015D0F4800F026
:100C4000C5FC05F10C00015D0D4800F0BFFC641C03
:100C500095F82400A042EEDC0EA1084800F0C4FC88
:100C60000CA1074800F0C0FC70BD00007B226C6F37
:100C70006E676974756465223A2200000044004082
:100C800000380140222C226C6174697475646522FD
:100C90003A220000227D00003EB504460025694648
:100CA0002046FFF7D5FE204600F018FD204600F054
:100CB000EDFD3AA13E4800F097FC3E493C4800F06B
:100CC00093FC3DA13A4800F08FFC6FF07F40FFF7A6
:100CD000BCFC3BA1364800F087FC3D48FFF7B5FC63
:100CE0003CA1334800F080FC3C49314800F07CFCDA
:100CF0003BA12F4800F078FC3CA12D4800F074FC8B
:100D00002C492B4800F070FC2CA1294800F06CFC09
:100D100039A1274800F068FC3BA1254800F064FC9D
:100D200043A1234800F060FC48A1214800F05CFC8E
:100D30004CA11F4800F058FC1E491D4800F054FC0F
:100D40001EA11B4800F050FC48A1194800F04CFCC3
:100D500006E028466D1C1DF80010154800F036FC12
:100D60001DF805000028F4D145A1114800F03CFC15
:100D70002046FFF739FF42A10D4800F035FC1A214B
:100D80000B4800F023FC002004F10B046076A076F1
:100D900020764FF0560004F80B093EBD41542B431A
:100DA000495053544152543D22544350222C220066
:100DB000004400402E000020222C38300D0A000094
:100DC00041542B43495053454E440D0A0000000046
:100DD000FFFF4F00504F535420000000250000201B
:100DE00020485454502F312E310D0A00526566654B
:100DF0007265723A200000004163636570743A2A9C
:100E00002F2A0D0A000000004163636570742D4CA9
:100E1000616E67756167653A207A682D636E2C652F
:100E20006E2D75733B713D302E350D0A00000000AC
:100E3000436F6E74656E742D547970653A7465787D
:100E4000742F6A736F6E0D0A00000000557365728F
:100E50002D4167656E743A59756E5368656E312E13
:100E6000300D0A00486F73743A200000436F6E74AF
:100E7000656E742D4C656E6774683A200000000042
:100E80000D0A0D0A0000000010B500F001F810BDB9
:100E90000CB50020019000903248006840F480308A
:100EA0003049086000BF2F48006800F4003000900F
:100EB0000198401C0190009818B90198B0F5A06FF6
:100EC000F1D12848006810F4003F02D001200090C2
:100ED00001E0002000900098012842D122480068DB
:100EE00040F01000204908600846006820F0030028
:100EF00008600846006840F0020008601948406831
:100F0000184948600846406848600846406840F410
:100F1000806048600846406820F47C1048600846BD
:100F2000406840F4E81048600846006840F080706F
:100F3000086000BF0B48006810F0007FFAD0094835
:100F4000406820F00300074948600846406840F0C8
:100F50000200486000BF0348406800F00C00082809
:100F6000F9D10CBD00100240002002407047000083
:100F700010B51348006840F00100114908600846A8
:100F80004068104908400E494860084600680E490C
:100F900008400B4908600846006820F4802008607B
:100FA0000846406820F4FE0048604FF41F00886047
:100FB000FFF76AFF4FF000600449086010BD0000B1
:100FC000001002400000FFF8FFFFF6FE08ED00E011
:100FD00010B50121880700F0BCF890B109480088DD
:100FE000401C80B207490880B0F57A7F05DD0120FA
:100FF000054908700020034908800121880700F096
:10100000A5F810BD160000201400002010B5012125
:101010000B4800F09EF890B10A480088401C80B24E
:1010200008490880B0F57A7F05DD0120064908707F
:101030000020044908800121014800F087F810BD14
:1010400000040040180000201400002010B5012109
:101050000B4800F07EF890B10A480088401C80B22E
:1010600008490880B0F57A7F05DD0120064908703F
:101070000020044908800121014800F067F810BDF4
:10108000000800401A0000201400002010B50121C3
:101090000B4800F05EF890B10A480088401C80B20E
:1010A00008490880B0F57A7F05DD012006490870FF
:1010B0000020044908800121014800F047F810BDD4
:1010C000000C00401C0000201400002010B501217D
:1010D0000B4800F03EF890B10A480088401C80B2EE
:1010E00008490880B0F57A7F05DD012006490870BF
:1010F0000020044908800121014800F027F810BDB4
:10110000001000401E0000201400002010B5012136
:101110000B4800F01EF890B10A480088401C80B2CD
:1011200008490880B0F57A7F05DD0120064908707E
:101130000020044908800121014800F007F810BD93
:10114000001400402000002014000020CA43028246
:10115000704730B50246002000230024158A05EAB6
:101160000103958905EA010413B10CB1012000E0E7
:10117000002030BD10B5064800F0CEF805490870D3
:10118000054904480078FFF709FB0449087010BDC1
:1011900000380140220000203C0000201500002003
:1011A00010B5054800F0B8F8044908700846017801
:1011B000034800F0B6F810BD0044004023000020B2
:1011C0000038014021B1828942F40052828104E05A
:1011D00082894DF6FF731A408281704702460020D3
:1011E000B1F5007F00D100BF13880B4201D0012070
:1011F00000E000207047F0B50346002400260025DB
:101200000020A1F510676A3F00D100BF1846C1F366
:10121000421401F01F06012707FA06F5012C01D13F
:101220000C3004E0022C01D1103000E014301AB16F
:1012300007682F43076002E00768AF430760F0BD0F
:101240002DE9F04786B005460E460024A24600BFB1
:10125000A1460027B08900B100BF2F462C8A4CF66A
:10126000FF700440F08804432C82AC894EF6F310E2
:101270000440B08831890843718908430443AC8134
:10128000AC8A4FF6FF400440B0890443AC8201A809
:10129000FFF73EFC1F48874202D1DDF810A001E0B5
:1012A000DDF80CA0A88910F4004F08D00AEBCA00A2
:1012B00000EB0A1031684900B0FBF1F807E00AEBD7
:1012C000CA0000EB0A1031688900B0FBF1F8642015
:1012D000B8FBF0F004012009642101FB1089A88902
:1012E00010F4004F08D0322000EBC900B0FBF1F041
:1012F00000F00700044308E0322000EB09106421ED
:10130000B0FBF1F000F00F0004432C8106B0BDE803
:10131000F08700000038014001468888C0F30800CB
:101320007047C1F308028280704700BFFEE70000EB
:101330000FB4054B10B503A9044A029800F017F842
:1013400010BC5DF814FB00000D16000838000020EA
:1013500002E008C8121F08C1002AFAD1704770477E
:10136000002001E001C1121F002AFBD170472DE9C6
:10137000F84F9946924688460546002759E02528A9
:1013800001D0514623E0002315F8011F18462E29ED
:1013900015D115F8011F04232A290DD06FF02F0253
:1013A0002978A1F13004092C09D800EB800002EB68
:1013B000400008446D1CF3E758F8040B6D1C2A78B4
:1013C00072B3632A08D0732A10D0514610464A4699
:1013D000904707F101072BE018F8042B8DF8002047
:1013E00000218DF801106E46012103E058F8046BCE
:1013F0004FF0FF315A074FF0000401D409E0641C9C
:1014000084420BDA8C42FADB325D002AF7D105E028
:10141000641C8C42FCDB305D0028F9D1274405E0D8
:101420000AE016F8010B51464A469047641EF8D26E
:101430006D1C28780028A2D13846BDE8F88F00003E
:10144000F8B504460D4616461F461C48844204D192
:1014500001210420FFF74CFB1EE01948844204D10F
:1014600001210820FFF744FB16E01648844204D10E
:1014700001211020FFF73CFB0EE01348844204D109
:1014800001212020FFF734FB06E01048844203D1FD
:1014900001214020FFF72CFBADF800508DF80360D0
:1014A00003208DF8020069462046FFF7EDF83A4622
:1014B0002946204600F00CF8F8BD00000008014065
:1014C000000C0140001001400014014000180140D0
:1014D000012A01D1002200E00122130101FA03F3E5
:1014E000036170477FB504460E46154615F0010F9F
:1014F0002AD0334884420AD101210014FFF7F8FAB8
:101500000023482221152F48FFF79AFF10E02E48AC
:1015100084420DD10023482208212A48FFF790FF7A
:1015200001214804FFF7D4FA01210520FFF7E0FA72
:10153000BDF80A0040F00400ADF80A00012240F2B4
:1015400025512046FFF757FE05F00200022824D15E
:101550001B4884420AD101210014FFF7C9FA002375
:10156000182261151748FFF76BFF10E016488442F8
:101570000DD10023182204211248FFF761FF012139
:101580004804FFF7A5FA01210520FFF7B1FABDF8DD
:101590000A0040F00800ADF80A0000960020ADF8FF
:1015A0000C00ADF80400ADF80600ADF8080069467F
:1015B0002046FFF745FE01212046FFF703FE7FBDD1
:1015C00000380140000801400044004070B5044666
:1015D0000D4600BF40212046FFF700FE0028F9D04D
:1015E000C5F30800A08070BD70B505460C4609E043
:1015F00000BF40212846FFF7F1FD0028F9D02078F0
:10160000A880641C20780028F2D170BD70B5044613
:101610000D46E1B20548FFF784FE00BF40210348B4
:10162000FFF7DCFD0028F9D0204670BD00380140EE
:1016300010B518A11948FFF7D7FF1948FFF705F8AB
:1016400018A11648FFF7D0FF6FF07F40FEF7FDFFAF
:1016500016A11248FFF7C8FF6FF07F40FEF7F5FFB5
:1016600015A10E48FFF7C0FF6FF07F40FEF7EDFFBA
:1016700014A10A48FFF7B8FF6FF07F40FEF7E5FFBF
:1016800013A10648FFF7B0FF6FF07F40FEF7DDFFC4
:1016900010BD000041540D0A00000000004400404D
:1016A000FFFF1F00415445310D0A000041542B43F8
:1016B0005354543F0D0A000041542B435354540DCE
:1016C0000A00000041542B43494943520D0A0000CF
:1016D00041542B43494653520D0A00002DE9F04F67
:1016E00089B004464FF0000B00BF00210D460E46A6
:1016F0000F46884660486149CDE90601207B3038B5
:1017000000EB80004FEA400A607B303882444FF0A3
:10171000020949E004F10C0010F809002E2802D15A
:101720004FF0010B3EE0BBF1000F1ED004F10C01A5
:1017300011F80910A1F13000FEF7A5FECDE9020174
:10174000DDE90623FEF7BEFD3A464346CDE9040136
:10175000FEF711FD07468846474A484BDDE906017A
:10176000FEF7B0FDCDE906011BE004F10C0111F814
:101770000900FEF799FE0022414BCDE902012846FF
:101780003146FEF79FFDCDE90001DDE90223FEF7BA
:10179000F2FC00223B4BCDE90401FEF78DFD05462E
:1017A0000E4600BF09F1010994F824004845B1DC58
:1017B0003A46434628463146FEF7DDFC05460E46CE
:1017C0000022314B28463146FEF7EEFD05460E4617
:1017D0005046FEF758FE2A463346CDE90401FEF78F
:1017E000CAFC05460E4628463146FEF76AFE82468A
:1017F0005046FEF748FE2A463346CDE90401FEF77F
:101800005EFD05460E460A209AFBF0F0303020734C
:101810000A209AFBF0F100FB11A0303060732E21FA
:10182000A1734FF0030920E00022154B28463146F2
:10183000FEF748FD05460E4628463146FEF741FEB6
:1018400082465046FEF71FFE2A463346CDE9040184
:10185000FEF735FD05460E460AF13000C1B204F12F
:101860000C0000F8091009F1010994F8240048451A
:10187000DADC09B0BDE8F08F9A9999999999B93F46
:10188000000024400000484000004E402DE9F04F89
:1018900089B004464FF0000B00BF00210D460E46F4
:1018A00000200746804667486749CDE90601E07D8C
:1018B0003038642100FB01FA207E303800EB8000D4
:1018C0000AEB400A607E303882444FF0030949E059
:1018D00004F1170010F809002E2802D14FF0010B77
:1018E0003EE0BBF1000F1ED004F1170111F8091002
:1018F000A1F13000FEF7C7FDCDE90201DDE90623C5
:10190000FEF7E0FC3A464346CDE90401FEF733FC1E
:10191000074688464B4A4C4BDDE90601FEF7D2FCF0
:10192000CDE906011BE004F1170111F80900FEF7EB
:10193000BBFD0022454BCDE9020128463146FEF7AA
:10194000C1FCCDE90001DDE90223FEF714FC002211
:101950003F4BCDE90401FEF7AFFC05460E4600BF44
:1019600009F1010994F825004845B1DC3A4643469F
:1019700028463146FEF7FFFB05460E460022354B52
:1019800028463146FEF710FD05460E465046FEF746
:101990007AFD2A463346CDE90401FEF7ECFB054605
:1019A0000E4628463146FEF78CFD82465046FEF72D
:1019B0006AFD2A463346CDE90401FEF780FC054660
:1019C0000E4664209AFBF0F03030E0750A209AFB56
:1019D000F0F00A2190FBF1F0303020760A209AFBDB
:1019E000F0F100FB11A0303060762E21A1764FF08F
:1019F000040920E00022154B28463146FEF762FC20
:101A000005460E4628463146FEF75BFD82465046A7
:101A1000FEF739FD2A463346CDE90401FEF74FFCB7
:101A200005460E460AF13000C1B204F1170000F875
:101A3000091009F1010994F825004845DADC09B0DC
:101A4000BDE8F08F9A9999999999B93F000024407F
:101A50000000484000004E40FEF778FF21E01148AA
:101A6000007801281DD11048C07A41280DD10E48B8
:101A7000FFF712F900200C4981F8240081F82500B5
:101A800081F823005620C87202E008A0FFF750FC3E
:101A9000002004490870012240F225510648FFF752
:101AA000AAFBDCE7150000203C000020B6A8CEBB56
:101AB000CAA7B0DC0000000000380140DC1A0008B2
:101AC000000000203C00000050130008181B000814
:101AD0003C0000202C0400006013000800000000FF
:101AE00001020304010203040607080902040608B0
:101AF00000000000000000000000000000000000E6
:101B000000687474703A2F2F2000687474703A2F34
:081B10002F000000000000009E
:0400000508000131BD
:00000001FF
